:060000000A128A110E280D
:10000800FE00030EF0000A08F1007F08F2000A164D
:100018008A112B2C0A128A1111288313DD30FD0056
:100028001030FE008230FF00C43084000A168A11A6
:1000380049200A128A116830FD001F30FE00AF30D7
:10004800FF00603084000A168A1149200A128A11BA
:10005800A0308400C4300A168A15A7270A128A110C
:100068004230840060300A168A15A7270A128A11BE
:10007800F901FA0183010A128A114228831603132F
:100088005A08E0005B08E1005C08E200E601E60AC5
:10009800E301DF01E401E5010A168A116E230A1261
:1000A8008A11E03083120313A4000030A500A601D2
:1000B8000A168A1121250A128A113130F4000030FB
:1000C8000A168A11B8200A128A113030F400013059
:1000D8000A168A11B8200A128A113130F400023047
:1000E8000A168A11B8200A128A113030F400033037
:1000F8000A168A11B8200A128A11F40104300A1665
:100108008A11B8200A128A110A3083120313A00038
:100118000030A1000A168A1120200A128A117408D8
:1001280083120313A3007308A2000A168A11E52399
:100138000A128A1183120313200883160313E80096
:1001480064306802031CA928AA28AC286330E80098
:100158000A128A1130270A128A1183160313E9003A
:10016800D030DD000730DE00FF30DD070318DE0A7F
:10017800FF30DE075D0A031DC5285E0A031DC5287A
:10018800C628B8283E306906031DCB28CC28E828A5
:100198007030F3008930F400E0300A168A11152116
:1001A8000A128A11E03083120313A4000030A5005C
:1001B80083160313680883120313A6000A168A110C
:1001C80021250A128A110D2C3D306906031DED28E0
:1001D800EE282029063063020318F328F428202982
:1001E800630883120313C0004007C43E84008313CE
:1001F8000008F300840A00088403F400E0300A16BB
:100208008A1115210A128A11E03083120313A400FF
:100218000030A50083160313680883120313A60091
:100228000A168A1121250A128A110130FF007F0857
:1002380083160313E3070D2C3B306906031D25299C
:1002480026295329630803192A292B295329013000
:10025800E302630883120313C0004007C43E84000E
:1002680083130008F300840A00088403F400E030D4
:100278000A168A1115210A128A11E0308312031313
:10028800A4000030A5008316031368088312031323
:10029800A6000A168A1121250A128A110D2C373058
:1002A80069060319582959295F292F306906031D42
:1002B8005E295F29A4296603031D63296429A429EB
:1002C800F30101300A168A11C6220A128A11043073
:1002D80083120313C1003D30C000C00B7129C10B4C
:1002E80071299F3083120313A0008830A100803049
:1002F800A2000A168A115F220A128A11C6308312D6
:100308000313A70020300A168A1158200A128A11EE
:10031800F3010F300A168A11C6220A128A11A53073
:1003280083120313C000C00B97299A290230831641
:100338000313E600E701E70A8312031312150D2CD5
:1003480011306906031DA929AA294F2A0430660617
:10035800031DAF29B0294F2A342AF30101300A16A8
:100368008A11C6220A128A116B3083120313A00065
:100378008930A1008030A2000A168A115F220A1271
:100388008A11083083160313E6000830E7000D2CA5
:10039800F30101300A168A11C6220A128A11103096
:1003A80083160313E6000430E7000D2C8230A40006
:1003B8008930A50083160313680883120313A60067
:1003C8000A168A1121250A128A110A128A155B2235
:1003D8000A128A11F30101300A168A11C6220A127A
:1003E8008A11043083160313E6000530E7000D2C4C
:1003F8008E30A4008930A500831603136808831281
:100408000313A6000A168A1121250A128A11F3017C
:1004180001300A168A11C6220A128A114030831640
:100428000313E6001030E7000D2C8830A400893053
:10043800A50083160313680883120313A6000A167F
:100448008A1121250A128A11F30101300A168A112C
:10045800C6220A128A11803083160313E6009E29E9
:100468005F0883120313C000C1014108003A031951
:100478003E2A0D2C4008003A0319B129013A031904
:10048800CC29033A0319DA29013A0319FC29073A56
:100498000319192A0D2C22306906031D542A552ADE
:1004A8006B2A0430660603195A2A5B2A612A083027
:1004B8006606031D602A612A6B2AE601E60AF30133
:1004C80001300A168A11C6220A128A110D2C11301F
:1004D8006906031D702A712A812A08306606031DE1
:1004E800762A772A812A0430E600F30101300A16B9
:1004F8008A11C6220A128A110D2C0D2CF3010C3018
:100508000A168A11C6220A128A11A5308312031309
:10051800C000C00B8D2A902A831603136808831223
:100528000313A900E0300A168A11CA240A128A1194
:10053800302C043083160313E6000530E700F3017E
:1005480001300A168A11C6220A128A11043083124F
:100558000313C1003D30C000C00BB02AC10BB02A44
:10056800F3010C300A168A11C6220A128A11A53024
:1005780083120313C000C00BBF2AC22A302C831673
:100588000313E601E60A831203131211F3010C3078
:100598000A168A11C6220A128A11BB2A8316031365
:1005A800670883120313A9008316031369080A1244
:1005B8008A15F0240A128A1183120313C000C1019C
:1005C8004108003A0319E92A302C4008013A031976
:1005D8009D2A023A0319C32A302C8316031367088D
:1005E80083120313A9008316031369080A168A11D4
:1005F8000F270A128A1183160313DF00302C831683
:100608000313670883120313A900831603136908E9
:100618000A128A1570260A128A11302C83160313BF
:1006280067080A168A1130220A128A11113A031D24
:100638001E2B1F2B252B323083160313E4000030AA
:10064800E5000430831603136706031D2C2B2D2B9E
:100658003E2B7F3083120313A4008930A500831634
:100668000313680883120313A6000A168A112125AA
:100678000A128A11831603136508803AFF00803036
:100688007F02031D492B01306402031C4C2B4D2BA8
:10069800302CFF3083160313E4070318E50AFF30F4
:1006A800E50764086504031D5A2B5B2B302C0430C6
:1006B800E6000530E700F30101300A168A11C62268
:1006C8000A128A11882883160313670883120313F2
:1006D800A9008316031369080A128A1137240A121B
:1006E8008A11113A031D792B7A2B802B64308316DB
:1006F8000313E4000030E500831603136508803A0D
:10070800FF0080307F02031D8B2B01306402031C25
:100718008E2B8F2B302CFF3083160313E40703181E
:10072800E50AFF30E50764086504031D9C2B9D2B33
:10073800302C0430E6000530E700F30101300A16DA
:100748008A11C6220A128A11882864308316031374
:10075800E4000030E500F3010C300A168A11C622C5
:100768000A128A11E42B043083160313E6000530BD
:10077800E700F3010C300A168A11C6220A128A1100
:10078800882883160313670883120313A9008316A6
:10079800031369080A128A1593230A128A1183120D
:1007A8000313C000C1014108003A0319DC2BE42BF4
:1007B8004008033A0319B72B123A0319A92BE42B63
:1007C800831603136508803AFF0080307F02031DFB
:1007D800EF2B01306402031CF22BF32B302CFF307B
:1007E80083160313E4070318E50AFF30E5076408D6
:1007F8006504031D002C012C302C0430E600053064
:10080800E700F30101300A168A11C6220A128A117A
:10081800882883160313660883120313C000C101D6
:100828004108003A0319192C302C4008013A0319E1
:10083800822A033A0319D22A063A0319F12A0C3AF2
:100848000319032B183A0319122B503A0319672B73
:10085800C03A0319C52B302C83160313E7018828E7
:100868000A128A110E2883120313AD0010302906CC
:10087800031D3F2C402CCD2C0A168A11DB250A12A9
:100888008A110F3083160313390583120313AA0044
:100898008316031338080F3983120313AB00AC0116
:1008A8002B08F3002C08F4000A30F5000030F6009D
:1008B8000A168A1138210A128A11831203132A0888
:1008C8007307C2000030031801307407C3000F30EB
:1008D800831603133B0583120313AA00831603131D
:1008E8003A080F3983120313AB00AC012B08F3004D
:1008F8002C08F4000A30F5000030F6000A168A11B8
:1009080038210A128A11831203132A087307C400B4
:100918000030031801307407C5000F308316031325
:100928003D0583120313AA00831603133C080F39ED
:1009380083120313AB00AC012B08F3002C08F4005E
:100948000A30F5000030F6000A168A1138210A121A
:100958008A11831203132A087307C600003003188C
:1009680001307407C700B030A0008830A100803083
:10097800A2000A168A115F220A128A110230831213
:100988000313CF000030D000DC01DB013F30AD00A5
:10099800DA015A080319D12CD22C042E22302F2F19
:1009A8004F08AA002A07423E8400013083138007BB
:1009B800840A0318800A172E0330F3000030F4006D
:1009C8004F08013EF50050080318013E003EF600AE
:1009D8000A128A1593210A128A11740883120313C2
:1009E800D0007308CF00172E0A168A11DB250A12C9
:1009F8008A110A30F3000030F4008312031343080D
:100A0800F6004208F5000A168A1134230A128A11E0
:100A1800730883120313AA007408AB000A30A000FD
:100A28000030A1004308A3004208A2000A168A1158
:100A3800E5230A128A11831203132008AC0003303D
:100A48000310AC0DFF3E031D242D03102C0D2A04AA
:100A5800B2004808C0393204C8004808F40002301F
:100A68000A168A11D6200A128A110A30F3000030B9
:100A7800F400831203134508F6004408F5000A162B
:100A88008A1134230A128A11730883120313AA00E5
:100A98007408AB000A30A0000030A1004508A3008C
:100AA8004408A2000A168A11E5230A128A11831241
:100AB80003132008AC0003300310AC0DFF3E031DE8
:100AC800602D03102C0D2A04B20049088039320425
:100AD800C9004908F40001300A168A11D6200A1202
:100AE8008A110A30F3000030F40083120313470818
:100AF800F6004608F5000A168A1134230A128A11EC
:100B0800730883120313AA007408AB000A30A0000C
:100B18000030A1004708A3004608A2000A168A115F
:100B2800E5230A128A11831203132008AC0003304C
:100B38000310AC0DFF3E031D9C2D03102C0D2A0441
:100B4800B2004A0880393204CA004A08F40000306A
:100B58000A168A11D6200A128A11F30101300A16E0
:100B68008A11C6220A128A110C3083120313A000BC
:100B78008930A1008230A2000A168A115F220A1267
:100B88008A11263083120313A0008930A100C230D5
:100B9800A2000A168A115F220A128A1100308312F3
:100BA8000313B1000030B0000030AF000030AE00D9
:100BB800013083120313AE07003003180130AF076A
:100BC800003003180130B007003003180130B107B6
:100BD8003108031DFE2D3008031DFE2D4E302F0257
:100BE800031DFA2D20302E02031DFA2D031CFD2DA6
:100BF800FE2DDC2D83120313DA01DA0A11302F2FB0
:100C08002D08AA00AB012B08003A03190C2E172E49
:100C18002A081F3A0319F82C303A0319E02C183A1D
:100C28000319D42C172E003043021830031942023E
:100C3800031C1F2E202E222EC201C30100304502A4
:100C48003C3003194402031C2A2E2B2E2D2EC401DE
:100C5800C501003047023C3003194602031C352EFB
:100C6800362E382EC601C7010130FF007F08DC0789
:100C780033305C06031D412E422ED22CDC015B086A
:100C88000319472E492E01304A2E0030DB00C030B0
:100C9800A7000A30A0000030A1004308A3004208C2
:100CA800A2000A168A11E5230A128A118312031375
:100CB8002008303E0A168A1158200A128A11C130BB
:100CC80083120313A7000A30F3000030F40043082E
:100CD800F6004208F5000A168A1134230A128A110E
:100CE8007308303E0A168A1158200A128A11C23037
:100CF80083120313A7003A300A168A1158200A12E1
:100D08008A11C33083120313A7000A30A0000030F1
:100D1800A1004508A3004408A2000A168A11E52389
:100D28000A128A11831203132008303E0A168A1108
:100D380058200A128A11C43083120313A7000A30FC
:100D4800F3000030F4004508F6004408F5000A16E0
:100D58008A1134230A128A117308303E0A168A113E
:100D680058200A128A11C53083120313A7003A309B
:100D78000A168A1158200A128A11C63083120313E0
:100D8800A7000A30A0000030A1004708A3004608C9
:100D9800A2000A168A11E5230A128A118312031384
:100DA8002008303E0A168A1158200A128A11C730C4
:100DB80083120313A7000A30F3000030F400470839
:100DC800F6004608F5000A168A1134230A128A1119
:100DD8007308303E0A168A1158200A128A118312A3
:100DE80003135B080319F92EFA2ED22C1F2F243077
:100DF800A0008830A100C030A2000A168A115F2224
:100E08000A128A11D22C2430A0008830A100C330E5
:100E1800A2000A168A115F220A128A11D22C2430E3
:100E2800A0008830A100C630A2000A168A115F22ED
:100E38000A128A11D22C5008003A0319242FD22CF6
:100E48004F08003A0319FB2E013A0319072F033AFA
:100E58000319132FD22C08008312031306083F39F5
:100E6800F3003F30730603193A2F3B2F472F7A08B8
:100E7800031D3F2F402F472FFA01FA0AE001E10135
:100E88007308F900B52F3F307306031D4C2F4D2F03
:100E9800622F7A080319512F522F622FFA01610825
:100EA800803AFF0080307F02031D5C2F1E306002F5
:100EB80003185F2F602FB52F7908B62F7A0803190A
:100EC800662F672F7D2F6108803AFF0080307F02F0
:100ED800031D702F1F3060020318732F742F7D2F8E
:100EE800013083120313E0070318E10A0030E10719
:100EF800B52F7A080319812F822F992F1F3083125B
:100F0800031360066104031D8A2F8B2F992F373036
:100F18007306031D902F912F992F0130E0070318B6
:100F2800E10A0030E1071130B62F7A0803199D2F26
:100F38009E2FB52F1F308312031360066104031D13
:100F4800A62FA72FB52F2F307306031DAC2FAD2F5B
:100F5800B52F0130E0070318E10A0030E10722301D
:100F6800B62F3F30080083120313A0002008A10009
:100F7800E12F0130F5020030031CF603F602740875
:100F8800F8007308F700F30A0319F40A7808FF0059
:100F9800770884000A168A1100200A128A11FF00B5
:100FA800210884000130A1077F088313800000080E
:100FB800031DDF2FE02FE12FF02F75087604031DA6
:100FC800E62FE72FBD2FF02F21088400831380011F
:100FD8000130FF007F08A1070130F5020030031C33
:100FE800F603F602750A031DFD2F760A031DFD2F71
:060FF800FE2FE82F0800A7
:1010000052346534203465346E347434653472344B
:1010100020346E346534773420347034773464345B
:101020002034203420342034003420342034203440
:101030002034203420342034203420342034203410
:1010400020342034203420342034203400344534FB
:101050006E3474346534723420346E3465347734CD
:1010600020347034773464342034203420342034F5
:1010700000342034573452344F344E344734203403
:10108000503441345334533457344F34523444344D
:101090002034003420342034543449344D34453421
:1010A000203420342034203420344534203420347B
:1010B0005334503400347734613469347434203418
:1010C00066346F34723420342E342E343634303457
:1010D000733465346334003450346134733473349E
:1010E00077346F3472346434203463346834613458
:1010F0006E3467346534643400345034613473348E
:10110000733477346F34723464342034203463346D
:10111000683461346E346734653400344E346F346F
:1011200020346C346F346734733420346134763453
:1011300061346934613462346C3465340034203491
:1011400045344E34543445345234203450344134D0
:101150005334533457344F345234443420340034ED
:10116000543469346D346534203428344834483478
:101170003A344D344D343A345334533429340034F2
:1011800059346F347534203461347234653420340A
:1011900062346C346F3463346B34653464340034DB
:1011A0006334683461346E346734653420347034A9
:1011B00061347334733477346F347234643400348C
:1011C00061347434743465346D3470347434203460
:1011D000523465346D34613469346E3473340034A0
:1011E00044346F3477346E346C346F346134643427
:1011F00020346C346F3467342034003473347534E5
:1012000063346334653473347334663475346C34E6
:101210006C34793420340034543469346D3465349A
:1012200020346334683461346E3467346534643434
:1012300000344C346F3467347334203463346C348A
:101240006534613472346534643400345334753435
:1012500063346334653473347334663475346C3496
:101260006C347934003473347534633463346534E6
:1012700073347334663475346C346C3479340034BC
:101280007334653474342034743469346D346534A3
:101290002034003463346C34653461347234203467
:1012A0006C346F34673400347634693465347734A1
:1012B00020346C346F34673400344C346F3467340A
:1012C000733420343A3400346634613469346C3415
:1012D0006534643400344C346F3467347334003410
:1012E000433420340034473431340034473432340A
:1012F0000034473433340034473434340034433416
:101300004C34003444344C34003447344E340034CC
:10131000433450340034473452340034433454346A
:02132000003497
:10132600F801F61F972998299F29F509F609F50A64
:101336000319F60AF801F80AF41FA229A329A82915
:10134600F309F409F30A0319F40A73087404031978
:10135600AD29AE29DD29F701F70ABC2901300310B2
:10136600F30DF40DFF3E031DB2290130FF007F0887
:10137600F707F41FBF29C029B12974087602031D97
:10138600C62973087502031CC929CA29D0297308FE
:10139600F5027408031CF603F60201300310F40C80
:1013A600F30CFF3E031DD1290130F702031DDC2992
:1013B600DD29C02978080319E129E229E729F50979
:1013C600F609F50A0319F60A7608F4007508F3001B
:1013D6000800C330F800CD30F700F70BF029F80B02
:1013E600F029F30133300A168A11C6220A128A1529
:1013F6001B30F8009E30F700F70BFF29F80BFF298A
:101406000000F30133300A168A11C6220A128A1521
:10141600A630F700F70B0D2A0000F30133300A1649
:101426008A11C6220A128A15182A192A0000F301FF
:1014360002300A168A11C6220A128A15A630F70049
:10144600F70B232A0000F30128300A168A11C62258
:101456000A128A15A630F700F70B2F2A0000F301AF
:1014660001300A168A11C6220A128A150430F800BB
:101476003D30F700F70B3D2AF80B3D2A422AF301CF
:101486000C300A168A11C6220A128A15A630F700EF
:10149600F70B4B2A0000F3010F300A168A11C622F9
:1014A6000A128A15A630F700F70B572A0000080023
:1014B600FF3083120313AF00FF30B000AB01640AA4
:1014C600031D692A650A031D692A6A2A742A8E3051
:1014D600F4008830F5000A168A115D210A128A1571
:1014E600922B5D30F4008930F5000A168A115D21D1
:1014F6000A128A150A300A168A15DD270A128A1573
:101506000A300A168A15DD270A128A150D300A16C0
:101516008A15DD270A128A15822B013083120313DE
:10152600AF070318B00A0030B0075F08031D9C2AF6
:101536009D2AA02AAD01AE01B72A0A30F300003079
:10154600F4006608013EF50067080318013E003EF8
:10155600F6000A128A1593210A128A157408831254
:101566000313AE007308AD000A30F3000030F40038
:101576002F082D07F50030080318300A2E07F6004D
:101586000A128A1593210A128A1574088312031304
:10159600AE007308AD00B101B2010A30F300831248
:1015A60003132D080A168A116D200A128A15831252
:1015B60003133107053EAC003108213E84002C0898
:1015C6000A168A11D8210A128A158313800001305F
:1015D60083120313B1070318B20A0030B2073208A8
:1015E600803AFF0080307F02031DFB2A0A30310259
:1015F600031CFE2AFF2AD02A831203132F08303E2B
:101606000A168A15DD270A128A1520300A168A1547
:10161600DD270A128A158312031321080A168A1572
:10162600DD270A128A158312031322080A168A1561
:10163600DD270A128A153A300A168A15DD270A129C
:101646008A158312031323080A168A15DD270A1240
:101656008A158312031324080A168A15DD270A122F
:101666008A153A300A168A15DD270A128A15831258
:10167600031325080A168A15DD270A128A1583120E
:10168600031326080A168A15DD270A128A15203042
:101696000A168A15DD270A128A15831203132708EC
:1016A6000A168A15DD270A128A15831203132808DB
:1016B6000A168A15DD270A128A1520300A168A1597
:1016C600DD270A128A158312031329080A168A15BA
:1016D600DD270A128A15831203132A080A168A15A9
:1016E600DD270A128A150A300A168A15DD270A121C
:1016F6008A150D300A168A15DD270A128A158312F5
:1017060003133008803AA0006508803A2002031DC2
:101716008E2B64082F02031C912B922B902A080013
:1017260083120313AC002903031D9A2B9B2BB22BA8
:101736002230F3008830F4000430F5000030F60063
:10174600AF300A128A11B7270A128A1583120313B9
:10175600CD01CE01D9011E30D5000030D600550886
:101766005604031DB72BB82BBA2B0330EF2C5908A0
:101776000319BE2BBF2BC12B2230EF2C4E08803A0B
:10178600FF0080307F02031DCA2B04304D02031870
:10179600CD2BCE2BDC2B273083120313A0008830F1
:1017A600A1008030A2000A168A115F220A128A1549
:1017B600662C831203134E08803AFF0080307F02A6
:1017C600031DE72B04304D02031CEA2BEB2B662C82
:1017D600831203134E08803AFF0080307F02031DF8
:1017E600F62B08304D020318F92BFA2B662C003025
:1017F60083120313A0008830A1008030A2000A16CD
:101806008A115F220A128A15662C4D08AF3E8400A3
:101816003030831380004D080339C03EA7002A30BC
:101826000A168A1158200A128A15013083120313E8
:10183600CD070318CE0A0030CE071E30D500003083
:10184600D60004304D064E04031D2A2C2B2C782C72
:101856001530A0008830A100C030A2000A168A11F7
:101866005F220A128A15782C4D08AF3E840031306B
:10187600831380004D080339C03EA7002A300A169C
:101886008A1158200A128A15013083120313CD07D4
:101896000318CE0A0030CE071E30D5000030D60021
:1018A60004304D064E04031D592C5A2C782C153045
:1018B600A0008830A100C030A2000A168A115F225B
:1018C6000A128A15782C831203132C08AA00AB017E
:1018D6002B08003A0319702C782C2A082F3A031982
:1018E600082C183A0319372C782C08308312031366
:1018F6004D064E04031D802C812CBF2BB330F30004
:101906000430F4000030F500AF300A168A117A244C
:101916000A128A1573087404031D922C932CCD2C7D
:1019260083160313B701B330F60000300A168A1186
:101936009B200A128A15013083120313CD07031860
:10194600CE0A0030CE07F30101300A168A11C622EC
:101956000A128A156C3083120313A0008830A10086
:101966008030A2000A168A115F220A128A15FE30FA
:1019760083120313A0008830A100C230A2000A1609
:101986008A115F220A128A1583120313D901D90A12
:101996001130EF2CF30101300A168A11C6220A1201
:1019A6008A157D3083120313A0008830A100803091
:1019B600A2000A168A115F220A128A15643083125F
:1019C6000313A0008930A100C530A2000A168A11AF
:1019D6005F220A128A15C72C080083120313B1006E
:1019E6002903031DF72CF82C0C2D3F30B1000330D2
:1019F600DD00DE01D701D80183160313BF01C00144
:101A0600C101C201C301053083120313D5000030A2
:101A1600D60055085604031D112D122D142D033022
:101A26006F2EF3010F300A168A11C6220A128A1582
:101A36003730831203133106031D222D232D432D28
:101A460004305E020318282D292D432D0530D500BC
:101A56000030D6005E08BF3E84003130831380001C
:101A66005E08C63EA7002A300A168A1158200A12B6
:101A76008A150130FF007F0883120313DE07632DEA
:101A86002F303106031D482D492D632D04305E028B
:101A960003184E2D4F2D632D0530D5000030D6008E
:101AA6005E08BF3E84003030831380005E08C63E69
:101AB600A7002A300A168A1158200A128A153C2DC8
:101AC60004305E06031D682D692D6E2E2C300A1615
:101AD6008A1183210A128A152C30F300BF300A16A8
:101AE6008A1103220A128A1573087404031D7C2DB9
:101AF6007D2D7F2D01306F2E013083120313DD0201
:101B0600031D862D872DF92DF3010C300A168A1137
:101B1600C6220A128A15F30101300A168A11C62254
:101B26000A128A15043083120313AB003D30AA0053
:101B3600AA0B9B2DAB0B9B2DC03083120313A00069
:101B46008830A1008030A2000A168A115F220A128C
:101B56008A155B3083120313A0008830A100C030C1
:101B6600A2000A168A115F220A128A153C308312D5
:101B76000313D7000030D800EE2DCB30A7000A3073
:101B8600F3000030F4005808F6005708F5000A166E
:101B96008A11A6260A128A157308303E0A168A1179
:101BA60058200A128A15CC3083120313A7000A3074
:101BB600F3000030F4005808F6005708F5000A1242
:101BC6008A1593210A128A157308303E0A168A115D
:101BD60058200A128A158312031357085804031D46
:101BE600F52DF62DC02D0330DD00492EF301013011
:101BF6000A168A11C6220A128A15043083120313A2
:101C0600AB003D30AA00AA0B062EAB0B062EF30145
:101C16000C300A168A11C6220A128A15A5308312BA
:101C26000313AA00AA0B152E182E3930831203139C
:101C3600A0008830A1008030A2000A168A115F2217
:101C46000A128A15C03083120313A7005D08303EBE
:101C56000A168A1158200A128A15E03083120313D5
:101C6600A0008830A100C230A2000A168A115F22A5
:101C76000A128A15033083120313D7000030D800E6
:101C860057085804031D482E492E432EF3010130F0
:101C96000A168A11C6220A128A1504308312031301
:101CA600AB003D30AA00AA0B562EAB0B562E9F302A
:101CB60083120313A0008830A1008030A2000A1608
:101CC6008A115F220A128A1583120313DE01053078
:101CD600D5000030D6001030080083120313B70079
:101CE600B501640A031D7B2E650A031D7B2E7C2E1F
:101CF600882E8E30A0008830A100C030A2000A16BF
:101D06008A115F220A128A15FF2F08302906031D41
:101D16008D2E8E2E902ED101D2015F08031D942E9A
:101D2600952E982EBC01BD01AF2E0A30F30000306F
:101D3600F4006608013EF50067080318013E003E00
:101D4600F6000A128A1593210A128A15740883125C
:101D56000313BD007308BC0037303706031DB42ECD
:101D6600B52ED72E5208803AAA006508803A2A0274
:101D7600031DBF2E640851020318C22EC32ED72E90
:101D8600013083120313D1070318D20A0030D20799
:101D96001530A0008830A100C030A2000A168A11B2
:101DA6005F220A128A15FF2E2F308312031337067D
:101DB600031DDE2EDF2EFF2E5208803AFF008030F4
:101DC6007F02031DE82E01305102031CEB2EEC2E80
:101DD600FF2EFF3083120313D1070318D20AFF30F8
:101DE600D2071530A0008830A100C030A2000A1624
:101DF6008A115F220A128A150A30F3000030F400B5
:101E06008312031351083C07F50052080318520ABF
:101E16003D07F6000A128A1593210A128A157408DC
:101E260083120313BD007308BC00BE01BF010A3054
:101E3600F300831203133C080A168A116D200A1256
:101E46008A15831203133E07053EB6003E082B3E55
:101E5600840036080A168A11D8210A128A158313B5
:101E66008000013083120313BE070318BF0A003037
:101E7600BF073F08803AFF0080307F02031D452FD1
:101E86000A303E02031C482F492F1A2FC0308312F6
:101E96000313A7005108303E0A168A1158200A1269
:101EA6008A15C23083120313A7002B080A168A115B
:101EB60058200A128A15C33083120313A7002C0870
:101EC6000A168A1158200A128A15C430831203137F
:101ED600A7003A300A168A1158200A128A15C53008
:101EE60083120313A7002D080A168A1158200A1216
:101EF6008A15C63083120313A7002E080A168A1104
:101F060058200A128A15C73083120313A7003A30E5
:101F16000A168A1158200A128A15C830831203132A
:101F2600A7002F080A168A1158200A128A15C930E6
:101F360083120313A70030080A168A1158200A12C2
:101F46008A15CB3083120313A70031080A168A11AB
:101F560058200A128A15CC3083120313A7003208C0
:101F66000A168A1158200A128A15CE3083120313D4
:101F7600A70033080A168A1158200A128A15CF308C
:101F860083120313A70034080A168A1158200A126E
:101F96008A15003083120313BB000030BA000030EC
:101FA600B9000030B800013083120313B8070030BF
:101FB60003180130B907003003180130BA070030A2
:101FC60003180130BB073B08031DF82F3A08031D11
:101FD600F82F4E303902031DF42F20303802031D2E
:101FE600F42F031CF72FF82FD62FF3010C300A1607
:101FF6008A11C6220A128A150800FF1B0A288313B3
:102006007F1883170008840A0319FF0A08007F084F
:0E2016007F398A000408840A0319FF0A820039
:102026008312031312149214FA30831603139200C8
:102036008C148312031312110800831203131F1545
:102046001F192628272823281E08F600831603139F
:102056001E08F5007608F4007508F3000800003045
:102066000A168A11AD210A168A11F70077087F39F8
:10207600F7007708F40000300A168A11D6200A16EF
:102086008A1108007E088A007F0882000A168A11D3
:1020960045200A168A118000840A04087D06031961
:1020A6000034FF0A0319FE0A492883120313A80005
:1020B600F30127080A168A11C6220A168A11F301A5
:1020C600F30A8312031328080A168A11C6220A166F
:1020D6008A110800F500F401751C72287328772808
:1020E6007308FF007F08F4070310F30D0310F50CC7
:1020F6007508031D7F2880286F287408080085341A
:1021060089348B3489347334893476348934793418
:1021160089347C348934543489344A348934F034EB
:10212600883440348934D03488344F344E340034C3
:10213600F700AF28760884000008F40077080A162E
:102146008A11B8200A168A110130FF007F08F607A7
:102156000130FF007F08F707760884008313000824
:10216600031DB628B7289D280800F5000A168A150B
:10217600B7270A168A11A0300A168A15D2270A1618
:102186008A1175080A168A15D2270A168A11740842
:102196000A168A15D2270A168A110A168A15C02720
:1021A6000A168A110800F5000A168A15B7270A16B4
:1021B6008A11D0300A168A15D2270A168A1175088E
:1021C6000A168A15D2270A168A1174080A168A155B
:1021D600D2270A168A110A168A15C0270A168A11E4
:1021E6000800F3000A168A15F3270A168A118316C1
:1021F600031391150A168A15F3270A168A118312F4
:1022060003131308F4007303031D0A290B290F296E
:1022160083160313911612298316031391121116AE
:1022260074080800F8007808F7007408F6007308C8
:10223600F500F30A0319F40A760883120313FF0064
:10224600750884000A168A1100200A168A11FF00F2
:10225600770884000130F7077F08831380000008A1
:10226600031D3629372918290800F701F801731CC0
:102276003D293E2944297508F7070318F80A760808
:10228600F80701300310F50DF60DFF3E031D452935
:1022960001300310F40CF30CFF3E031D4C297308A8
:1022A6007404031D572958293A297808F400770839
:1022B600F300080072297508FF00740884000A16E6
:1022C6008A1100200A168A110A168A15DD270A16AF
:1022D6008A110130F4070318F50A0030F50775086E
:1022E60083120313FF00740884000A168A11002063
:1022F6000A168A11003A031D812982295E290800DF
:1023060083120313A000A101A20183120313210863
:102316002007F7007708840021080A168A11D821B9
:102326000A168A1183138000013083120313A10752
:102336000318A20A0030A2072208803AFF00803064
:102346007F02031DA82905302102031CAB29AC29F5
:1023560088290800F5000A168A15B7270A168A1171
:10236600D0300A168A15D2270A168A1175080A1657
:102376008A15D2270A168A110A168A15C9270A1635
:102386008A11D1300A168A15D2270A168A11003008
:102396000A168A11F4200A168A11F6000A168A15F8
:1023A600C0270A168A1176080800F5000A168A154B
:1023B600B7270A168A11A0300A168A15D2270A16D6
:1023C6008A1175080A168A15D2270A168A110A165C
:1023D6008A15C9270A168A11A1300A168A15D22724
:1023E6000A168A1100300A168A11F4200A168A1172
:1023F600F6000A168A15C0270A168A1176080800FA
:10240600F7000D2A0130FF007F08F7070130FF00B3
:102416007F08F3077308840083130008F500770824
:10242600840000087506031D192A1A2A212A77082E
:1024360084000008031D202A212A052A7308840027
:102446000008F500770884000008F6007508760293
:10245600F300F401031CF4030800F700193083129B
:102466000313A0008930A1008230A2000A168A1147
:102476005F220A168A11333083120313A0008930B3
:10248600A100C230A2000A168A115F220A168A111A
:1024960004307706031D502A512A5D2AFF30831225
:1024A6000313E600FF30E700FF30E400FF30E500ED
:1024B60011305E2A22300800F3018312031322082A
:1024C6000A168A11C6220A168A11812AF301F30A0C
:1024D6002108FF00200884000A168A1100200A1627
:1024E6008A110A168A11C6220A168A110130831227
:1024F6000313A0070318A10A0030A10783120313D0
:102506002108FF00200884000A168A1100200A16F6
:102516008A11003A031D902A912A692A080083121B
:10252600031394152808AC002908AD002A08AE004C
:102536002B08AF0002300310AC0DAD0DAE0DAF0D84
:10254600FF3E031D9E2A2F08A3002E08A2002D0879
:10255600A1002C08A0000130A7003130A6002D30C4
:10256600A5000030A4000A168A113E260A168A1112
:10257600831203132008FF3E83160313930083126E
:10258600031394160800F6007318CA2ACE2A83127B
:1025960003130915D12A8312031309117608F0399A
:1025A60088008914A630F400F40BD72A00008312A1
:1025B6000313891076080F39F40003300310F40D65
:1025C600FF3E031DE12A0310740D88008914A6300E
:1025D600F400F40BEC2A00008312031389101B305D
:1025E600F5009E30F400F40BF62AF50BF62A0000EF
:1025F60008008312031398178316031318159816E9
:102606008312031318162808AC002908AD002A08FF
:10261600AE002B08AF0004300310AC0DAD0DAE0DAF
:10262600AF0DFF3E031D0F2B2F08A3002E08A2009F
:102636002D08A1002C08A0000130A7003130A6000B
:102646002D30A5000030A4000A168A113E260A166F
:102656008A11831203132008FF3E83160313990081
:102666000800730874040319392B3A2B692BF701F8
:10267600F70A482B01300310F30DF40DFF3E031D3E
:102686003E2B0130FF007F08F707F41F4B2B4C2B26
:102696003D2B74087602031D522B73087502031C2A
:1026A600552B562B5C2B7308F5027408031CF60396
:1026B600F60201300310F40CF30CFF3E031D5D2BF4
:1026C6000130F702031D682B692B4C2B7608F400AA
:1026D6007508F30008000A168A15E8270A168A11F3
:1026E600003083120313AB000130AA008630A90024
:1026F600A030A8000A168A1192220A168A110A1612
:102706008A1132200A168A110A168A15A0270A1675
:102716008A110A168A159A270A168A110A168A1122
:1027260013200A168A11003083120313AB000030FF
:10273600AA002530A9008030A8000A168A11FC22BA
:102746000A168A118B170B17080001308312031320
:10275600E6070318E70A0030E7070A30660667044B
:10276600031DB62BB72BBB2BE601E701DF01DF0A02
:102776000A30F30066080A168A116D200A168A11B5
:10278600053EF800A430F60078080A168A119B2048
:102796000A168A11831203136508803AFF008030F7
:1027A6007F02031DD82B093064020318DB2BDC2BB8
:1027B600E42B013083120313E4070318E50A003003
:1027C600E507080083120313A501A60120082104CA
:1027D6000319EE2BEF2B262CA401A40AFD2B0130A6
:1027E6000310A00DA10DFF3E031DF32B0130FF00CA
:1027F6007F08A407A11F002C012CF22B0130031027
:10280600A50DA60DFF3E031D022C21082302031D64
:102816000E2C20082202031C112C122C192C200825
:10282600A2022108031CA303A302251401300310EE
:10283600A10CA00CFF3E031D1A2C0130A402031D9F
:10284600252C262C012C2608A1002508A00008000E
:10285600831203138C1C302C312C712C0130CB07C6
:102866000318CC0A0030CC07E2304B0604300319BB
:102876004C06031D3F2C402C6E2CCB01CC01580876
:10288600803AFF0080307F02031D4B2C0130570237
:10289600031C4E2C4F2C572CFF3083120313D707E3
:1028A6000318D80AFF30D807831203135608803A54
:1028B600FF0080307F02031D622C01305502031C8D
:1028C600652C662C6E2CFF3083120313D507031874
:1028D600D60AFF30D607831203138C107208FF0046
:1028E60071088A00700E8300FE0E7E0E0900F80045
:1028F6000130F4020030031CF503F502740A031DCF
:10290600882C750A031D882C892C9A2CF301F40156
:10291600C92C0130FF007F08F8070130FF007F084F
:10292600F3070130F4020030031CF503F5027808C2
:102936008400831300080319A12CA22CBB2C730856
:10294600840000080319A82CA92CBB2C7408750454
:102956000319AE2CAF2CBB2C730884000008F600BC
:1029660078088400000876060319BA2CBB2C8C2C38
:10297600730884000008F600780884000008F70051
:1029860076087702F300F401031CF40308008312AF
:102996000313AC004A30A0008830A1008030A200AA
:1029A6000A168A115F220A168A11831203132C084B
:1029B600A0000030A100CB30A2000A168A115F22C7
:1029C6000A168A11CE3083120313A7000A30F300C9
:1029D6000030F4002908AA00AB012A08F5002B08EC
:1029E600F6000A168A11A6260A168A117308303EC0
:1029F6000A168A1158200A168A11CF308312031339
:102A0600A7000A30F3000030F4002908AA00AB0141
:102A16002A08F5002B08F6000A128A1593210A16D1
:102A26008A117308303E0A168A1158200A168A112E
:102A36000A168A1179250A168A1108000A168A11B9
:102A4600DB250A168A11B830F3000030F400063090
:102A5600F5000030F600A4300A128A11B7270A16CC
:102A66008A11831203132408F3002508F4000230A8
:102A7600F5000030F600AA300A128A11B7270A16A6
:102A86008A110A30F3000030F4008312031326087B
:102A9600A700A8012708F5002808F6000A168A11DB
:102AA600A6260A168A117308303E83160313AC0055
:102AB6000A30F3000030F400831203132608A7003F
:102AC600A8012708F5002808F6000A128A1593219E
:102AD6000A168A117308303E83160313AD00AE0141
:102AE6000A168A11A8230A168A1108000A168A11DC
:102AF600DB250A168A11C23083120313A700831638
:102B0600031338080A168A1158200A168A11C33088
:102B160083120313A7008316031339080A168A11B2
:102B260058200A168A11C43083120313A7003A30BC
:102B36000A168A1158200A168A11C5308312031301
:102B4600A700831603133A080A168A1158200A1694
:102B56008A11C63083120313A700831603133B089A
:102B66000A168A1158200A168A11C73083120313CF
:102B7600A7003A300A168A1158200A168A11C83058
:102B860083120313A700831603133C080A168A113F
:102B960058200A168A11C93083120313A700831618
:102BA60003133D080A168A1158200A168A110800CE
:102BB60002300A168A11AD210A168A1183120313EE
:102BC600C80001300A168A11AD210A168A1183122D
:102BD6000313C90000300A168A11AD210A168A119C
:102BE60083120313CA004808F70004300310F70CD9
:102BF600FF3E031DF92D77080339303E8316031374
:102C0600B8008312031348080F39303E83160313A6
:102C1600B900831203134908F70004300310F70CB8
:102C2600FF3E031D112E77080739303E8316031326
:102C3600BA008312031349080F39303E8316031373
:102C4600BB00831203134A08F70004300310F70C85
:102C5600FF3E031D292E77080739303E83160313DE
:102C6600BC00831203134A080F39303E8316031340
:102C7600BD00BE0108000030F7000030F60000304D
:102C8600F5000030F4008312031323082204210404
:102C9600200403194F2E502E9D2EF801F80A602E9F
:102CA6000130F3000310A00DA10DA20DA30DF30B2F
:102CB600552E0130FF007F08F807A31F632E642EF0
:102CC600532E0130F3000310F40DF50DF60DF70D3C
:102CD600F30B662E23082702031D7B2E22082602ED
:102CE600031D7B2E21082502031D7B2E20082402AE
:102CF600031C7E2E7F2E8E2E2008A4022108031C84
:102D0600210FA5022208031C220FA6022308031C7A
:102D1600230FA702741401300310A30CA20CA10CFC
:102D2600A00CFF3E031D8F2E0130F802031D9C2EC2
:102D36009D2E642E7708A3007608A2007508A100D0
:102D46007408A000080083120313A101F41FAC2E1F
:102D5600AD2EB42EF309F409F30A0319F40AA101FE
:102D6600A10AF61FB72EB82EC12EF509F609F50AE7
:102D76000319F60A0130FF007F08A106A201A3018C
:102D8600730874040319C82EC92E002FA001A00AC7
:102D9600D72E01300310F30DF40DFF3E031DCD2E8B
:102DA6000130FF007F08A007F41FDA2EDB2ECC2EA1
:102DB60001300310A20DA30DFF3E031DDC2E740887
:102DC6007602031DE82E73087502031CEB2EEC2E0B
:102DD600F32E7308F5027408031CF603F602221498
:102DE60001300310F40CF30CFF3E031DF42E0130EA
:102DF600A002031DFF2E002FDB2E21080319042F2E
:102E0600052F0A2FA209A309A20A0319A30A230858
:102E1600F4002208F300080083120313AC00053007
:102E26002906031D172F182F1E2FD301D401013099
:102E3600E2000030E30037302C06031D232F242F39
:102E4600562F5408803AFF0080307F02031D2D2F35
:102E5600043053020318302F312F562F01308312BE
:102E66000313D3070318D40A0030D4076308803A43
:102E7600FF0080307F02031D422F023062020318DA
:102E8600452F462F4E2F013083120313E2070318F6
:102E9600E30A0030E307F30101300A168A11C6225D
:102EA6000A168A118F2F2F30831203132C06031D47
:102EB6005D2F5E2F8F2F5408803AFF0080307F02EF
:102EC600031D672F01305302031C6A2F6B2F8F2FB0
:102ED600FF3083120313D3070318D40AFF30D40735
:102EE6006308803AFF0080307F02031D7C2F02308A
:102EF6006202031C7F2F802F882FFF30831203135B
:102F0600E2070318E30AFF30E307F30101300A166C
:102F16008A11C6220A168A118312031362036304F6
:102F2600031D962F972FCA2F8030A7002A300A1626
:102F36008A1158200A168A11831203135308AA000D
:102F46002A07D03E840083130008A000840A0008E4
:102F56008403A1008230A2000A168A115F220A1693
:102F66008A11831203135308AA002A07D23E84004B
:102F760083130008A000840A00088403A100C2305D
:102F8600A2000A168A115F220A168A11FC2FC03087
:102F9600A7002A300A168A1158200A168A118312A7
:102FA60003135308AA002A07CE3E840083130008A1
:102FB600A000840A00088403A1008230A2000A1639
:102FC6008A115F220A168A11831203135308AA0074
:102FD6002A07D03E840083130008A000840A000854
:102FE6008403A100C230A2000A168A115F220A16C3
:0A2FF6008A11831203135308080028
:103F34008316031306083F3886000800831603130C
:103F44009F17831203131F14080064008001840A5E
:103F54000406031900340406A82F01340034013484
:103F64000034FF34FF34FF34FF340A168A15F32774
:103F74000A168A1583160313111408000A168A15E3
:103F8400F3270A168A1583160313111508000A1657
:103F94008A15F3270A168A15831603139114080049
:103FA400F3000A168A15F3270A168A157308831272
:103FB400031393000800F30073088312031399009A
:103FC4000C1EE52FE62FE22F0C12080083160313B4
:103FD4008801091189100A128A15EC210A168A151A
:103FE4000800831603131419F82FF92FF32F11085F
:103FF4001F39031DFE2FFF2FF32F0800FF3FFF3F44
:04400400FF3FFF3F3C
:02400E00FB3F76
:00000001FF
